:020000040800F2
:10000000D8490020818300088D8100088F81000875
:10001000918100089381000895810008000000008C
:1000200000000000000000000000000097810008B0
:1000300099810008000000009B8100089D81000854
:100040003184000835840008398400083D840008A4
:100050004184000845840008251C000849840008E4
:10006000ED1B00084D8400085184000855840008E9
:10007000598400085D8400086184000865840008D4
:10008000698400086D840008718400087584000884
:10009000798400087D840008818400088584000834
:1000A000898400088D8400089184000895840008E4
:1000B000998400089D840008A1840008A584000894
:1000C000A9840008AD840008B1840008B584000844
:1000D000B9840008BD840008C1840008C5840008F4
:1000E000C9840008CD840008D1840008D5840008A4
:1000F000D9840008DD840008E1840008E584000854
:10010000E9840008ED840008F1840008F584000803
:10011000F9840008FD8400080185000805850008B1
:10012000098500080D85000811850008158500085F
:10013000198500081D85000821850008258500080F
:10014000298500082D8500083185000835850008BF
:10015000398500083D85000841850008458500086F
:10016000498500084D85000851850008558500081F
:10017000598500085D8500086185000865850008CF
:10018000698500086D85000871850008758500087F
:10019000798500087D85000881850008858500082F
:1001A0000000000000000000898500081CB5040064
:1001B0000020009004224FF40171684601F0CEFD4A
:1001C0000099200080B20140009101F000FD04225E
:1001D0004FF40171684601F00FFE01F0EDFC13BD14
:1001E0001CB504000020009004224FF40171684601
:1001F00001F0B4FD0099200080B20143009101F0AC
:10020000E6FC04224FF40171684601F0F5FD01F0AF
:10021000D3FC13BD80B50020009004224FF4A061F0
:10022000684601F09BFD009810F0C05F04D00020EC
:10023000DFF8581B087003E00120DFF8501B08703E
:1002400001BD38B50400DFF8485B08222000C0B2C9
:10025000C00010F50060010089B2280001F07EFDA9
:10026000280032BD38B504005FF080700090200097
:10027000C0B2C50005F604050422290089B268460B
:1002800001F0BAFD0422290089B2684601F066FD3A
:100290000098C001F6D531BD38B5040000200090AB
:1002A0002000C0B2C50005F604050422290089B269
:1002B000684601F0A1FD0422290089B2684601F0D8
:1002C0004DFD0098C001F6D431BD2DE9F84F040072
:1002D00000265FF0000A5FF0000BDFF8CC09018810
:1002E00041F2FF7291420EDB018841F6FF329142EA
:1002F00009DB018841F2FF12914204DB008841F2E0
:10030000FF31884201DA142077E10020FFF799FFDE
:100310000700D7F800805FEA1848D7F8009078689F
:10032000C00302D4162006002AE0387910F00C0031
:10033000042802D01620060022E03879800702D473
:10034000162006001CE0404680B2242802DA16205F
:10035000060015E0404680B2812802DB1620060028
:100360000EE0484680B2B0F5805F02DA1620060043
:1003700006E0484680B2B0F5905F01DB162006002B
:100380003000C0B2002838D10120FFF75AFF070023
:100390003868000C8046386881467868C00302D40B
:1003A0001620060029E0387910F00C0F02D0162034
:1003B000060022E03879800702D4162006001CE0EF
:1003C000404680B2242802DA1620060015E0404696
:1003D00080B2812802DB162006000EE0484680B27B
:1003E000B0F5905F02DA1620060006E0484680B2BB
:1003F000B0F5A05F01DB162006003000C0B2002877
:100400006AD12000C0B2042866DBDFF888A9012089
:100410008AF800000320FFF714FF07003868000C7B
:100420008046386881467868C00306D5404680B269
:10043000002802D10420060048E07868C0033AD5BD
:10044000DFF854094146028889B2914206D10088FA
:10045000002803D0404680B2032802DB03200600B8
:1004600034E0387910F00C0F22D1DFF8580A017807
:10047000022909D1494689B2B1F5C05F04DB49467A
:1004800089B2B1F5E05F09DB007802280DD048465B
:10049000DFF8341A098880B2884206D1387980079B
:1004A00014D500208AF8000010E0022006000DE0BC
:1004B000042006000AE0404680B2002804D1DFF89C
:1004C000D8080088002801D0032006003000C0B200
:1004D000002801D01E2006003000C0B2002873D1D1
:1004E0002000C0B203286FDB0220FFF7AAFE07003E
:1004F0003868000C8046386881467868C00306D5A5
:10050000404680B2002802D10420060056E07868F8
:10051000C00348D5DFF8B4094146028889B2914248
:100520003ED1008800283BD0404680B2032837DA0D
:10053000387910F00C0004282FD1DFF888090178F1
:10054000022909D1494689B2B1F5A05F04DB4946C9
:1005500089B2B1F5C05F09DB007802281AD048469D
:10056000DFF86C19098880B2884213D138794006C7
:1005700004D50120DFF85C19087003E00020DFF8E3
:10058000541908703879800718D50020DFF804184E
:10059000087013E00220060010E0042006000DE0C1
:1005A000032006000AE0404680B2002804D1DFF8AC
:1005B0001C090088002801D0032006003000C0B2CA
:1005C000002801D01D2006003000C0B2002812D142
:1005D00025002800DFF800190978C0B288420AD245
:1005E0002800C0B2FFF72DFE07007868DFF8EC188E
:1005F00008606D1CEDE73000C0B2BDE8F28F2DE958
:10060000F84F8AB00020ADF824000020ADF80600B5
:10061000002000900020039000208DF804000320AB
:10062000ADF814000320ADF812000020ADF816005C
:100630005FF0000B4FF6FF71DFF8A468B08901404E
:10064000DFF8A078B8890140ADF81010DFF898887D
:100650000020A8F800000020DFF8901808700220A1
:10066000FFF7EFFD0500DFF868482868208028794B
:10067000800702D50120ADF812000320FFF7E1FD4D
:100680000890DFF8441808980068088008980079F6
:10069000800702D50120ADF81400DFF8FC96DFF8E2
:1006A000502813880D88B9F800C0BDF8140000FB6D
:1006B0000CFC1CFA85F0834208DA08881388DFF8FE
:1006C00034582D8815FA83F3984218DBDFF8283860
:1006D0001D88B1F800C0B9F800E0BDF8140000FBB7
:1006E0000EFE1EFA8CF085420BDA08881D88DFF8B2
:1006F0000CC8BCF800C01CFA85F5A84201DA1E201F
:10070000A1E2DFF8C8A71588B4F800C0BAF800E085
:10071000BDF8120000FB0EFE1EFA8CF0854208DACE
:1007200020881288DFF8CC572D8815FA82F2904283
:1007300027DB1A882588BAF800C0BDF8120000FB34
:100740000CFC1CFA85F0824208DA20881A88DFF84F
:10075000AC371B8813FA82F2904212DB0A88238896
:10076000BAF80050BDF81200454315FA83F08242F2
:1007700009DA20880988B9F8002012FA81F1884244
:1007800001DA1D205FE204224FF4186102A801F093
:10079000E5FA029880B2029004224FF41A6168468A
:1007A00001F0DCFA042240F6A41103A801F0D6FA05
:1007B00074887D88029810F4106F4BD0029810F462
:1007C000C06F01D130203EE2029810F4C060B0F555
:1007D000806F01D1302036E2BDF8100000280FD024
:1007E000BDF81000400702D40298800506D4BDF879
:1007F0001000000704D40298400501D5302022E201
:10080000DFF8FC1632690098002809D00098904261
:1008100004D30098DFF8EC16884201D3362012E2A8
:10082000029810F4C060B0F5C06F09D10398002899
:1008300006D003980099884202D301208DF8040065
:100840009DF80400002805D0BDF81000C00601D4B2
:100850003020F8E1DFF8B006007800282FD00298A9
:1008600010F4106F11D1200080B202280BD02000AC
:1008700080B2032807D0280080B2022803D02800C5
:1008800080B203285CD13020DDE10298400509D414
:10089000200080B2032803D0280080B2032801D1B1
:1008A0003020D0E1029880054AD4200080B202288E
:1008B00003D0280080B2022842D13020C3E1029840
:1008C00010F4106F1DD1BAF8000000280BD00120E1
:1008D0000400B9F80000002802D0222005002FE013
:1008E000002005002CE0B9F80000002804D000200A
:1008F00004000120050023E0002004000020050082
:100900001EE0BAF80000002809D09DF80400002875
:1009100002D00320040004E00220040001E00020D3
:100920000400B9F80000002808D00298400502D55C
:100930000320050004E00220050001E0002005007E
:10094000200080B2032808D100987062009870607F
:1009500000987862009878600BE0200080B202284E
:1009600007D10098706200987060009878620098D3
:100970007860DFF820040078002809D1200080B2D8
:10098000002803D0280080B2002801D129205AE194
:10099000200080B2002803D1280080B2002803D0B4
:1009A0000120DFF8D41A0870DFF8CC0A007800289C
:1009B00010D0BAF80000002804D04FF48060A8F8E6
:1009C000000007E0B9F80000002803D04FF40060F1
:1009D000A8F80000200080B202280BD0200080B2CE
:1009E000032807D0280080B2022803D0280080B254
:1009F00003280AD10120DFF8841A0870BAF8000031
:100A0000002802D10020A8F8000074807D80DFF863
:100A1000702A002010800020DFF8681A0880DFF8B4
:100A200068CA0020ACF800000020DFF8601A0880D7
:100A30009DF8040001282CD1039B0098C31803984B
:100A40000099884212D30098B3FBF0F0ACF8000094
:100A50000098B3FBF0F0009901FB1030002808D19A
:100A6000BCF80000401CACF8000002E00120ACF82B
:100A700000000098B3FBF0F010800098B3FBF0F09A
:100A8000009901FB1030002810D01088401C108005
:100A90000CE0200080B2022802D10120ACF8000056
:100AA000280080B2032801D0012010800020DFF848
:100AB000E01908800020079004224FF4846107A801
:100AC00001F04CF90798ADF80600BAF800000028CC
:100AD0002ED0BDF8060000282AD00020069004225F
:100AE0004FF4806106A801F039F9DDF818B05846D6
:100AF00080B2002810D0594689B2891CBDF8060082
:100B0000414301F5C241A73146F2A810B1FBF0F014
:100B1000DFF88019088006E00020ADF8060000200C
:100B2000DFF8701908800020DFF86C19088005E0F4
:100B30005FF0000B0020DFF85C190880DFF838094F
:100B40000078002809D0BAF80000002805D0B8F8CD
:100B5000000050F48060A8F80000DFF84019002081
:100B600008800020DFF8382910800020DFF83429C1
:100B70001080DFF83429002010800020DFF82C39A5
:100B800018700020DFF8283918700020DFF82439A9
:100B900018800020388500207885002087F84000E4
:100BA0000020308500207085002086F840000298E3
:100BB000800537D50098002802D1002008800FE07A
:100BC0000098DFF8C03BB0FBF3F0052802D2012308
:100BD0000B8005E0400080B20A2390FBF3F0088010
:100BE000029840051ED50398009B984202D20888BF
:100BF000108017E0039B0098C318DFF8880BB3FB45
:100C0000F0F3052B02D20120108004E058000A26E0
:100C1000B0FBF6F0108016880888022190FBF1F0F6
:100C200086191680BAF80000002802D00220FFF7CB
:100C300033FBB9F80000002802D00320FFF72CFB9B
:100C400001F02CF900200BB0BDE8F08FFF21DFF898
:100C500068080078002803D0DFF8600800881AE0F0
:100C6000DFF818080078002807D0C820DFF84428EB
:100C700010800020DFF8C02A1080994800220285E9
:100C8000002280F84020974800220285002280F848
:100C90004020080080B2704700209449087000206E
:100CA000DFF8181C08707047A009002010B58748AD
:100CB0000088002802D00220FFF7D4FA36480088C6
:100CC000002802D00320FFF7CDFA0C2454F48064EE
:100CD00054F40064200080B2C04380B2FFF766FA8B
:100CE0000020824908700020DFF88C17087000206F
:100CF000DFF8881708700020DFF8B01708700020B0
:100D0000DFF8AC1708700020DFF87C17088000209F
:100D1000DFF8781708800020DFF8801708800020AF
:100D2000DFF87C1708800020DFF8781708800020A3
:100D3000DFF8741708800020DFF8441708800020CF
:100D4000DFF84017088066480021018500214185B1
:100D5000002180F840106348002101850021418571
:100D6000002180F840100020DFF84817088000209C
:100D7000584908700020DFF8101A087000206249F6
:100D8000087010BD0020604908707047CD09002030
:100D9000F0080020C50900209C090020FEB50400D1
:100DA0000D002E0000200090464F38782100C9B277
:100DB000884200D03C70280080B24FF6FF71884214
:100DC00008D0300080B2009004224FF49A71684637
:100DD00001F012F83878009004224FF498716846B8
:100DE00001F00AF8280080B2002801D0E00604D4FF
:100DF0000020DFF8CC1A087022E0280080B22D28ED
:100E00000CD0280080B21A2808D0280080B23228DE
:100E100004D0DFF8A4060078012804D10120DFF80F
:100E2000A01A08700CE0280080B21B2804D1022010
:100E3000DFF88C1A087003E00D20DFF8841A0870C0
:100E4000DFF87C0A017851F0100101702100C9B26D
:100E500011F00F01C9B2012908D002290BD00329D2
:100E600018D004290CD008290FD017E00021DFF892
:100E7000602A117012E00D21DFF8542A11700DE084
:100E80000121DFF84C2A117008E00F21DFF8402A19
:100E9000117003E00E21DFF8382A1170DFF8301AE4
:100EA0000A7852F010020A70002201920978007844
:100EB00051EA0021019104224FF49C7101A800F035
:100EC0009BFFF7BDCC090020A80900209E09002047
:100ED000A6090020BF090020CB09002058090020E6
:100EE0008C070020D0070020AA090020BE0900209E
:100EF000B2090020AC090020B0090020AE09002092
:100F000020A10700010050C3D60900202DE9F84FA9
:100F10000D0000260027DFF8AC895FF0FF31A8F84C
:100F20000010DFF8A499012189F80010C10608D546
:100F300001210F00DFF894190A7812F0EF020A700D
:100F40000FE0DFF888190A78D20606D50200D2B27F
:100F500012F00F02012A40F08D820A7812F00F027F
:100F60000A7010F00F000400DFF860A99AF8000082
:100F7000000120188DF800009DF80000122810D004
:100F800022280ED0242811D042280AD0442818D074
:100F9000482816D0822804D0842812D0882810D05F
:100FA00015E00220FFF791F9060010E0DFF82419A0
:100FB000DFF8240901F0B7FA0600300080B20028FB
:100FC00005D1DFF818090078FFF77FF90600300037
:100FD00080B2002840F09A810020DFF804190880D0
:100FE0009DF80000112800F06781122800F0988019
:100FF00013283ED0142800F08381182800F0808147
:10100000212800F05181222800F05881232800F087
:101010007781242800F0B780282800F071813128DA
:101020006AD0322800F06C81342800F069813828B9
:1010300000F06681412800F02881422800F00E81EE
:10104000432800F05D81442800F03881482800F0F2
:10105000C780812800F00A81822800F0EF80832871
:1010600000F04E81842800F0E180882800F026817D
:1010700049E1DFF870B801208BF800000220FFF78B
:1010800024F9002805D000208BF800001520060068
:1010900061E10020FFF78AF801F08EFB06003000C6
:1010A00080B200280DD1002089F8000001F02BFA51
:1010B0000600300080B2002803D10120DFF8281894
:1010C0000870300080B200280BD0300080B2FF28BA
:1010D00007D099F80000002801D101F016FA01F0BC
:1010E000D0FB032001F0B0FE300080B2002802D017
:1010F00000208BF800002EE1DFF8E81708780028C0
:1011000009D0002008700020FFF750F801F0B9FB6B
:1011100001F0FBF9060001F098FEFFF733FE1AE13B
:10112000FFF778F8DFF8A8080078002801D15120EF
:101130000600300080B2002824D101F03DFB0600FB
:10114000300080B200280DD1002089F8000001F0A5
:10115000DAF90600300080B2002803D10120DFF860
:1011600088170870300080B200280BD0300080B2A1
:10117000FF2807D099F80000002801D101F0C5F937
:1011800001F07FFBE7E0FFF73AFA0600300080B29B
:10119000002814D1002089F80000DFF838B858463C
:1011A00001F0B5F90600300080B2002807D1BBF885
:1011B0000000FFF715F80120DFF8CC1508703000AB
:1011C00080B200280BD0300080B2FF2807D099F8F9
:1011D0000000002801D101F09DF9FFF767FDBAE09A
:1011E000FFF734FD0600300080B200280DD100204A
:1011F00089F8000001F090F90600300080B2002864
:1012000003D10120DFF8B4160870300080B2002846
:101210000BD0300080B2FF2807D099F800000028DA
:1012200001D101F07BF9FFF737FD94E001F076F989
:10123000FFF732FD002089F800008CE001F06EF924
:101240000600FFF729FD002089F80000300080B279
:10125000002840F0808042208DF8000001F05AF90B
:10126000FFF724FD002089F8000074E001F056F932
:101270000600FFF711FD002089F80000300080B261
:10128000002868D141208DF8000001F043F90600E4
:10129000FFF70CFD002089F80000300080B2002824
:1012A00059D121208DF8000001F0EBFA01F02DF961
:1012B0000600FFF767FD4EE0FFF764FD3800C0B29F
:1012C000002804D09DF8000080B201F01BF99AF8C4
:1012D000000010F00C0F10D0DFF8F805008800288F
:1012E00003D00220FEF7D8FF07E0DFF8EC05008806
:1012F000002802D00320FEF7CFFFFE2006002AE0E0
:101300001120060027E01220060024E09AF80000D1
:1013100002280BD0042805D008281CD101F0FEF8C3
:10132000FFF7BAFC01F0F6F8FFF7C0FC300080B21E
:1013300016280DD101F0A5FA01F0E7F80020FEF71C
:1013400091FF0120FEF78EFF01208AF8000002E0E5
:1013500002208AF80000300080B2FF282AD1012044
:10136000DFF8A0170870DFF878059DF800100180FD
:101370000088122806D0132804D0242807D0482833
:1013800005D009E04FF4FA60A8F8000007E042F247
:101390002830A8F8000002E0C820A8F80000B8F83B
:1013A0000010B8F900000A2290FBF2F0091AA8F820
:1013B00000105FE02000C0B29AF8001011F00F0199
:1013C00088424ED0300080B2002803D1280080B27D
:1013D000002820D02100C9B29AF800000143080774
:1013E00019D5DFF8D8040078002803D001F096F86A
:1013F000FFF752FCDFF8DC040088002803D002204D
:10140000FEF730FF07E0DFF8D0040088002802D0A4
:101410000320FEF727FF300080B200280DD09AF895
:101420000000082802D104208AF800009AF8000081
:1014300050F010008AF8000008E0280080B2002870
:1014400002D02E0054F010048AF800400020DFF88B
:10145000B4160870310089B29AF80000FFF79EFCBC
:1014600008E00020DFF89C16087000219AF80000C0
:10147000FFF794FCBDE8F18FC4090020C0090020EB
:101480009409002096090020860900208409002084
:10149000B4090020A2090020A40900208E09002020
:1014A0008C0900209009002092090020C109002029
:1014B000C209002088090020C609002098090020E0
:1014C0002DE9F041DFF83C462078002800F031811A
:1014D000002500260027DFF8EC03B0F90000002803
:1014E00075D1DFF8FC03018889B209090E00008874
:1014F000122806D0132804D0242818D048282CD02D
:1015000005E1DFF8C4030078002801D100F0FDFFF9
:1015100001F0B7F9DFF8F0050078002804D0DFF813
:10152000EC050088070001E001200700EFE0DFF88C
:1015300098030078002801D100F0ECFFFFF7B6FB1C
:10154000DFF8C4050078002804D0DFF8C005008863
:10155000070001E001200700D9E0DFF8B4050078BA
:10156000002817D0DFF8AC050078002802D12D2024
:1015700007001FE0DFF8A0050078002807D1DFF89A
:1015800054030088002802D01B20070012E01A2014
:1015900007000FE0DFF83C030088002802D01B2082
:1015A000070007E008200600002007000120DFF800
:1015B00028140870380080B2002807D0C24800788C
:1015C000002801D100F0AAFFFFF766FB9FE0DFF8DB
:1015D0001083B8F80000122806D0132804D024285D
:1015E00022D048283ED092E0B749087800281AD087
:1015F0000020087000F087FF0500280080B2002856
:1016000009D10120DFF8E012087098F8000010F00E
:101610000F00060007E0280080B2FF2803D000F08A
:1016200074FF01F02EF972E0A7490878002818D05D
:1016300000200870DFF89C0300F069FF0500280017
:1016400080B2002805D101204F490870042006000F
:1016500007E0280080B2FF2803D000F05BFFFFF70F
:1016600025FB54E098490878002850D0DFF8A00402
:101670000078002829D0DFF8A404B0F90020012A5E
:1016800045DB2D4AB2F90030B0F900C063453EDBBE
:1016900000230380002010800020087000F03CFF31
:1016A0000500280080B2002806D10120DFF82813A9
:1016B0000870082006002AE0280080B2FF2826D003
:1016C00000F02CFFFFF7E8FA21E0DFF808020088BD
:1016D000002804D0DFF840040078002817D000204C
:1016E000087000F019FF0500280080B2002806D11C
:1016F0000120DFF8E41208700820060007E0280047
:1017000080B2FF2803D000F009FFFFF7C5FA3000D0
:10171000C0B200280DD000202070380080B2002810
:1017200001D056F01006390089B23000C0B2FFF780
:1017300035FBBDE8F08100008A09002080B5DFF8A4
:10174000E013088800281BD0DFF8D8030288521C59
:101750000280028809888A4212D3002101805D48F4
:10176000008800280CD055480078002804D01B21A0
:101770000420FFF7CBFB03E00020DFF89C13087088
:1017800001BD0000A0860100BD09002080B500F069
:101790001EFADFF87C03007800286CD0DFF888039D
:1017A0000078002867D0DFF88413088800280AD062
:1017B000DFF87C0300880A88904204D30020DFF819
:1017C000541308700CE0DFF86803028809888A4225
:1017D00002D20188491C01800120DFF8381308700B
:1017E000DFF830130878002810D0DFF8482310887D
:1017F00000280BD0DFF8400303881288934203D2FD
:101800000288521C028001E000200870087800283D
:101810002AD0DFF82803008DDFF8241309890A3164
:1018200088420FDA0120DFF81C130870DFF8EC02A1
:10183000B0F9000001281EDBDFF80C030188491C09
:10184000018018E0DFF8FC120878002813D000208F
:101850000870DFF8C802B0F9000001280BDB002097
:10186000DFF8E412088006E0DFF8D81208780028D4
:1018700001D00020087000F09FF901BD80B5DFF8AD
:1018800090020078002817D00C480078002813D068
:10189000DFF880020078002804D12C210420FFF713
:1018A00035FB09E0DFF89C020078002804D11A21FA
:1018B0000420FFF72BFBFFE701BD0000BC0900205F
:1018C000C909002082090020C7090020CC09002096
:1018D000CA0900209E0900209C090020CB09002095
:1018E0009A090020BB090020D009002038B500204B
:1018F000009004220421684600F030FA954D0098CB
:10190000000A28700098000C800200F6FF709249CF
:101910000880FEF77FFC002420002978C0B28842AE
:1019200005D22000C0B2FEF79DFC641CF4E700F075
:10193000E1FE0020894908700020844908700020D9
:10194000704908700020744908700020224908700E
:1019500000207549087000208149087000207049F6
:10196000088000206F49088000207149088000200D
:101970006E49088000207049088000206D49088069
:1019800000206349087000205F49087000205F490B
:10199000088000200F49088000207249088000203C
:1019A000714908806A480121017000210078FFF721
:1019B000F5F900206D49088000206D49087000206D
:1019C0006C49087001F06CFA0020FEF7EFFB31BDA6
:1019D000CD090020AA090020BC0900207CB5002404
:1019E0005FF48030009001F0D8F9634E3078002821
:1019F00005D0042240F60C01684600F0AFF900F073
:101A0000A1F90500E80715D53E480078002811D156
:101A10000020019004224FF4907101A800F09EF97B
:101A2000019804004FF6EE70054000212000C0B27E
:101A3000FFF76CFAE80615D532480078002811D176
:101A4000434A1078C0060DD4107830F010000128F9
:101A500008D04FF6EF7005400021107810F00F000D
:101A6000FFF754FA27480078002801D0FFF728FD37
:101A70003078002845D00098C00306D400213448AF
:101A8000007810F00F00FFF741FAA8050CD53B488D
:101A90000021016004223A49098800F0ADF94FF6AF
:101AA000FF50054000F0D7FF0098800303D535486C
:101AB0000078002806D00098800318D431480078B8
:101AC000002814D001F01BF82E480078002804D01C
:101AD000009850F00070009003E0009830F0007023
:101AE0000090042240F60C01684600F085F900F0F1
:101AF00029F90500E80504D54FF6FF60054001F01F
:101B000065F873BDC8090020C609002098090020A7
:101B1000C0090020C1090020BE090020880900205A
:101B2000A2090020A4090020BD0900208E09002080
:101B30008C09002092090020900900208C070020C9
:101B400064030020C20900208A090020C709002080
:101B5000CC090020CB090020A0090020BB090020EF
:101B6000BF0900209E0900209C0900209A0900203E
:101B7000C9090020C4090020D00900205409002010
:101B8000B2090020D1090020012210F01F018A4073
:101B9000DFF8F41203005BB25B0941F823207047C1
:101BA000012210F01F018A40DFF8E01203005BB24F
:101BB0005B0941F82320704780B50820FFF7E4FF58
:101BC0000620FFF7E1FF0720FFF7DEFF01BD80B52C
:101BD0000820FFF7E5FF0620FFF7E2FF0720FFF7E9
:101BE000DFFF01BD80B501F02CFA01BD80B50420F6
:101BF00001F025FB01280CD10221012001F011FD8B
:101C000000F05BFA0221002001F00BFD042001F03E
:101C100021FB01BD80B501F04EFA01BD80B501F098
:101C200087FA01BD80B5012001F009FB012804D12C
:101C300000F0D5FA012001F00DFB01BD80B5FFF7E2
:101C4000E9FFFFF7EBFF01BD80B5FFF7CBFF01BD5B
:101C500080B58F4801F045FD80B202BD80B50021FE
:101C60008B4801F03CFD01BD1FB50121022001F0B0
:101C7000F4FD40F2CF7001905420ADF80000002038
:101C8000ADF802000020ADF80800814C6946200044
:101C900001F0F0FC0121200001F025FD1FBD80B501
:101CA0000020009001F044F99320009004224FF4AA
:101CB0000171684600F0A0F80020009004224FF463
:101CC0000171684600F04AF800989328ECD1002092
:101CD000009004224FF40171684600F08DF8FFF780
:101CE000ADFFFFF7C1FFFFF7AFFFFFF765FF002074
:101CF00002BD7CB504000D002800C0B250EAC4004B
:101D0000ADF8000063488188006801F03CFE624E37
:101D10009DF8010001F072F930709DF8000001F0AB
:101D20006DF9707073BD80B501220021684600F026
:101D300015F801BD80B501220021684600F033F896
:101D400001BD704780B5FFF7EEFF5348008802BD24
:101D500080B5FFF7EFFF5048008802BD2DE9F04144
:101D600004000D0016003700A0463800471E80B260
:101D7000002816D0FFF72BFF0221280080B2FFF7C2
:101D8000B8FFFF2001F03AF988F8000018F10108C7
:101D900040488188006801F0F4FDFFF70DFF6D1CDD
:101DA000E3E7BDE8F0812DE9F84304000D001600DB
:101DB000B1460027A0460221280080B2FFF799FF14
:101DC0004846B0F1010980B200280ED0484680B2E2
:101DD000002801D1FF2007003800C0B201F00EF941
:101DE00088F8000018F10108EAE72A4881880068AD
:101DF00001F0C7FDBDE8F1832DE9FC4104000D00B1
:101E000016003700A0463800471E80B2002817D0C1
:101E1000FFF7DDFE0421280080B2FFF76AFF98F883
:101E2000000001F0EBF88DF8000018F101081948E6
:101E30008188006801F0A5FDFFF7BEFE6D1CE2E79A
:101E4000BDE8F3812DE9FC4104000D0016003700C8
:101E5000A0460421280080B2FFF74BFF3800471E40
:101E600080B2002808D098F8000001F0C7F8ADF85B
:101E7000000018F10108F1E706488188006801F0C8
:101E800080FDBDE8F381000000E100E080E100E0BA
:101E900000040040D8830008740900202DE9F041B7
:101EA0000024FFF755FF0700DFF8B455DFF8B465ED
:101EB000307F10F00100297F11F001010843C0B20A
:101EC000002803D0002000F0D1F80400DFF8988546
:101ED000404600F0C3FBDFF894050288DFF8900568
:101EE00001884046FFF7AEFF307F10F00100297FE8
:101EF00011F001010843C0B2002807D0200000F013
:101F0000B5F804006869A04200D26C61BDE8F081B8
:101F1000F8B50024DFF84855DFF84865307F10F049
:101F20000100297F11F001010843C0B2002810D040
:101F3000002000F09BF80400DFF838050460012061
:101F4000DFF8341508700020DFF83015086000F065
:101F500063F8DFF82C75DFF82C050288DFF8280518
:101F600001883800FFF71FFF380000F07DFB307F4D
:101F700010F00100297F11F001010843C0B20028D0
:101F800007D0200000F072F804007069A04200D26F
:101F90007461F1BD38B5DFF8F4040078002808D08A
:101FA000DFF8EC04B0F90010012902DB0188491EBA
:101FB0000180FFF7C3FBFFF7E9FBDFF8D8140878CF
:101FC00000280FD0DFF8D004D0E9002332F000025F
:101FD00033F0FF33DFF8C4440025AB420ED801D301
:101FE000A2420BD2DFF8B004D0E90023DFF8B044FE
:101FF000002512196B41C0E9002307E0087800288A
:1020000004D04FF47A60DFF89C140860DFF8940481
:102010000168491C016031BD10B5DFF88C040078FF
:10202000002822D1DFF884442068002819D02068D5
:1020300000F01CF82060DFF82C144868002803D05A
:1020400020684A68904201D220684860DFF8101486
:102050004868002803D020684A68904201D220686E
:102060004860002000F002F8206010BD38B5040080
:1020700000200090002504224FF411616846FFF70C
:1020800092FE009800280AD00098A04203D300983E
:10209000001B050003E00098401E001B0500002CFB
:1020A00009D0DFF80C040168A94202D200682D1A99
:1020B00001E000200500280032BD70B5DFF8F40310
:1020C0000078002800F08880FFF742FE04006005D9
:1020D00045D5DFF8E4030078002808D0DFF8C8030E
:1020E0000078002803D00020DFF8D0130880DFF844
:1020F0007413088D002802D0088D401E0885088DB5
:10210000DFF85C1308850120DFF8B41308700020A5
:10211000DFF8B0130880DFF8B003007800280AD099
:102120000321012001F07DFAFFF7F2FE03210020D8
:1021300001F077FA13E0DFF89453DFF84C630422E0
:1021400031882800FFF72FFE04223188DFF834039E
:1021500000884118091F89B22800FFF724FEDFF824
:1021600004536888012801D100F063F9DFF86003A7
:102170000078002811D0DFF8E8024188012902D058
:102180004088222809D10421012001F04AFAFFF7F2
:1021900085FE0421002001F044FAFFF7D9FD060076
:1021A000700519D5688D401C6885688DAC494885D7
:1021B000DFF81843DFF8D052042229882000FFF707
:1021C000F2FD04222988DFF8BC0200884118091FAB
:1021D00089B22000FFF7E7FD01F06CFC70BD70B51F
:1021E0000020DFF8F0120880DFF8BC020078002839
:1021F00066D0DFF8DC422078002804D0DFF8D8026F
:102200000188491C0180DFF8D4522888002842D078
:10221000AA4E2888318888421CD29A49088800280A
:1022200008D09048AE4A1289038D9A4202D3028D9B
:10223000D21C02858D48008800280BD00888002811
:1022400008D18748A6490989028D914202D3018DA0
:10225000C91C01858B480088002815D18348008857
:10226000002811D0FFF774FD010507D429883288B2
:10227000914210D33188491C31800CE0002131801B
:102280000021774A118506E028883188884202D3E8
:102290003088401C308000F0CCF8207800280FD027
:1022A000904D288800280BD08B4C288821888842A4
:1022B00006D1FFF7F3FD2888012801D100202080F6
:1022C00001F0F8FB70BD7CB5002400208649086051
:1022D0000020864908600020854908600020854963
:1022E0000860002084490860002084490860FFF7E6
:1022F000FDFA01F000FC01208149087000205E49D0
:10230000087000206949086000205A490860684D3B
:102310000020286000200190002600200090B6F5E3
:102320007A7F27D204224FF4116101A8FFF73BFD09
:1023300004224FF411616846FFF735FD00980199BA
:10234000884204D300990198091A009104E0009989
:10235000491E0198091A00912868002802D10098A6
:10236000286005E000982968884201D2009828601A
:10237000761CD4E7200080B276BD10B560480078A6
:10238000002855D04B490878002803D04C480078E5
:10239000002830D14448007800282CD10878002843
:1023A0001DD1FFF7CFFC040060050CD50120444986
:1023B00008700020434908804348007800280ED068
:1023C000FFF7A6FD0BE02F480088002807D1200565
:1023D00005D501203A49087000203A490880FFF7E6
:1023E000F6FB00F026F83A480078002801D0FFF705
:1023F00055FDFFF7E1FBFFF72BFC0400B4F57A7FF6
:1024000003D3FFF7C7FDFFF729FC26480068B0F5A6
:102410007A6F01D301F017FBFFF7E0FA01F080FCBF
:10242000FFF72CFA35490868002801D00868804772
:1024300010BD80B50B48007F10F001000849097FEE
:1024400011F001010843C0B2002805D00D480088F2
:10245000002801D1FFF7E0FD00F00CF901BD0000FC
:10246000D00700208C0700207C0900209C09002058
:10247000A809002034090020B90900203C090020E7
:102480007A0900209E090020A6090020C809002022
:1024900082090020C3090020E808002041FBE1FF79
:1024A00040420F0010090020C00900203009002020
:1024B00038090020C4090020C10900208409002037
:1024C000BE090020A4090020BC09002054090020F6
:1024D000BD0900208C0900209609002086090020F3
:1024E0006403002094090020180900201C09002022
:1024F0002009002024090020280900202C090020A0
:10250000BA09002070470020704700207047010082
:1025100000207047002070470020704780B501F010
:1025200045F8002002BD2DE9F34F81B000250026BB
:102530005FF0000B0020002400275FF000085FF030
:1025400000095FF0000A4F485146028889B2914263
:1025500033D2514689B200EB4100408801F0E2FBE2
:102560000400002C25D0A0690088070000208146C7
:102570004846390080B289B2884217D2210019F149
:102580000100C0B201F082FD80B2C010022190FBB8
:10259000F1F0A16901EB4000804698F8000000F0DE
:1025A000FF0010EB0B0B19F10109E1E71AF1010A29
:1025B000C9E700208346252005001FFA8BFB1BF18D
:1025C000070B5FEAEB0B280080B200283AD100200D
:1025D00082462D485146028889B2914232D25146F4
:1025E00089B200EB4100408801F09CFB0400002C04
:1025F00024D0A069008807000020814648463900A1
:1026000080B289B2884216D2210019F10100C0B20D
:1026100001F03CFD80B2C010022190FBF1F0A169F5
:1026200001EB4000804698F8000000F0FF0086199A
:1026300019F10109E2E71AF1010ACAE700200600D0
:1026400024200500B6B2F61DF61001980680029807
:10265000A0F800B0280080B2BDE8FE8F10B50400DD
:10266000200000F0D4FF10BD10B50400200000F0E1
:10267000D4FF10BD80B505480078002801D000F0D7
:10268000F7FD01BD080400200C040020BC09002057
:1026900010B402004B885B1C18008C8880B2A042EA
:1026A00001D10020030008881C00A4B2A04201D17F
:1026B000072005E0488801EB800082604B80002005
:1026C00010BC704710B4010008884A8890420ED0B0
:1026D0000A88100080B201EB80008068521C0A80DA
:1026E0000B888C88A34203D100230B8000E00020DC
:1026F00010BC70471CB52420DFF8F4160880802039
:10270000DFF8F01608804FF48050DFF8EC160880F0
:102710004FF49050DFF8E4160880DFF8E40600215B
:102720000180002141800A218180DFF8D806002144
:102730000180002141800A2181800020DFF8C81635
:1027400008600020DFF8C41608600020DFF8C0161B
:1027500008600020DFF8BC1608600020DFF8B8161B
:1027600008700020009040F60C0404222100684606
:10277000FFF7F4FA009830F0007000900422210076
:102780006846FFF739FB0020DFF89016087000203C
:10279000DFF88C1608700020DFF88816087000201B
:1027A000DFF8841608700020DFF88016087000201B
:1027B000DFF87C16087013BD2DE9F04100240020DD
:1027C000FDF73FFD0700DFF828663868000C308011
:1027D000DFF824863868A8F800000120FDF731FDF5
:1027E0000500DFF810062968090C0180DFF80C16D7
:1027F0002A680A800A88B8F80030B6F800C01CFAC7
:1028000083F39A4209DAB8F800200988038813FA9A
:1028100081F18A4201DA162031E000880C38DFF8B5
:10282000141608800020FDF737FD0120FDF734FD68
:10283000DFF8D475308802F037FB3860386800283C
:1028400012D10120DFF8F01508700A2002F02CFBED
:1028500038603868002801D102200400386803F08D
:102860002DFD0020386008E00020DFF8CC1508704E
:10287000386803F023FD00203860200080B2BDE8F6
:10288000F081F8B50020DFF8941508700020FDF7FE
:10289000E9FC0120FDF7E6FCDFF870552868002808
:1028A00002D0286803F00AFDDFF868653068002868
:1028B00006D030682968884202D0306803F0FEFCF8
:1028C000DFF84C75386800280AD0386829688842D3
:1028D00006D038683168884202D0386803F0EEFCD0
:1028E00003F0EEFC0020DFF82015086000202860CF
:1028F00000203860002030600020DFF81C150870D0
:102900000020009040F60C05042229006846FFF7DD
:1029100025FA009830F000700090042229006846E3
:10292000FFF76AFA0020DFF8F81408700020DFF8DB
:10293000F41408700020DFF8F01408700020DFF8AD
:10294000EC1408700020DFF8E8140870DFF8B00419
:10295000FFF7B8FE0400002C02D0200003F0AEFC0C
:10296000002CF3D1DFF89C04FFF7ACFE0400002C30
:1029700002D0200003F0A2FC002CF3D1F1BD10B571
:102980000400DFF8B8040078012806D1A088C0F35D
:102990000320042801D0022012E0A088C0F3032005
:1029A000C0B2032802D0042804D007E0200000F0C1
:1029B0007BFA04E0200003F093FC00E00220C0B2A8
:1029C00010BDF8B504000025A688B6B2360B2788DE
:1029D000380080B281280FDB04202080A1884FF2CC
:1029E000FF000140A1800120E0800820208100211B
:1029F000200000F0ACF82DE03000C0B2002806D076
:102A00003000DFF828140978C0B288421DD0DFF802
:102A10001C040670DFF8E8132000FFF739FE0500FC
:102A20002800C0B2002815D004202080A1884FF2D1
:102A3000FF000140A1800120E0802800C0B2208179
:102A40000021200000F083F804E0200003F036FCB1
:102A500000200400F1BD38B50020DFF8C413087071
:102A6000DFF8A8432068002809D0DFF8A803006831
:102A7000002804D1206803F021FC00202060DFF84A
:102A8000900300682060DFF88C432068002805D0A0
:102A9000206800F018F90020206009E0DFF86403E6
:102AA000FFF710FE0400002C02D0200000F00BF90C
:102AB000DFF874432078002820D02078800712D5D2
:102AC0000025207810F0FD002070DFF83C0300683E
:102AD00000F008FA0100C9B200290FD0217851F0A6
:102AE000020121700AE02078400607D5207810F016
:102AF000BF002070C448006803F072FD31BDF8B516
:102B0000C24C2068002818D02568C54E30780028AF
:102B10000ED0C04F386800280AD10120FDF7A2FB73
:102B2000BB48006838600120FDF7B6FB002030701C
:102B3000280000F0C8F800202060B7490878002875
:102B400002D10120087001E000200870F1BDF8B545
:102B500004000D000026BA48007810F00F0001288C
:102B600001D1F02031E0A0880005000DA080B04F19
:102B7000387810F0070F01D101203870A08839781B
:102B800050EA0130A080200000F09DF800280FD00E
:102B90009C492000FFF77CFD06003000C0B20028F1
:102BA00002D055F0800506E03878401C387002E00D
:102BB0003878401C3870280605D59B490A7815F0EE
:102BC0007F0002430A703000C0B2F2BD2DE9FE431F
:102BD00000200190884E0422318801A8FFF7BEF83A
:102BE000019880B20190019D93480078012820D17E
:102BF0000A2002F059F90400002C1AD00A275FF0CD
:102C00000008A14642463900484603F007FD04206B
:102C10002080A1884FF2FF000140A1800120E080C8
:102C20000720208100212000FFF791FF200003F002
:102C300045FBAD1D2C007A480078002803D17A4866
:102C40000078002803D001207649087039E0754DDE
:102C500000202870664F3888210089B2884201D24E
:102C600038880400DFF8A081388802F01DF9C8F820
:102C70000000D8F80000002802D10120287020E0D0
:102C8000220092B23188D8F80000FFF767F80020E0
:102C90000090042240F604016846FFF75FF80098B0
:102CA00000050AD56748002101600422338839886D
:102CB000CB18191F89B2FFF751F8D8F80000FFF7B9
:102CC00080FEBDE8F7832DE9F84F84B004005C482E
:102CD000007810F00F00012801D1F0205AE04F4891
:102CE0000078002801D1F02054E04D4D28780028CC
:102CF00001D007204EE02688404FB21D92B239889D
:102D00002000FFF779F800200090042240F60C0123
:102D10006846FFF723F80098000530D4DFF8D48028
:102D2000B8F80090B9EB0609B9F10609DFF814A16B
:102D30000020CAF80000484680B2042815DA3000A6
:102D400080B2801D042190FBF1F080000390484682
:102D500080B2D0F104000290039820440190D34641
:102D6000029A0199584603F08DFC04223988B8F87C
:102D700000004118091F89B25046FFF73DF8244969
:102D80000868002802D000201F4A10600C60012053
:102D90002870002005B0BDE8F08F38B5002400256C
:102DA0001748FFF78FFC0400002C03D02000FFF72A
:102DB000E6FD05002800C0B200280FD004202080C6
:102DC000A1884FF2FF000140A1800120E08028008F
:102DD000C0B2208100212000FFF7B9FE002CDED117
:102DE00010480078002801D0FFF7F0FE31BD000048
:102DF000AE090020AC090020B0090020B209002073
:102E000048080020140800205C0900206409002004
:102E10006009002068090020D1090020D0090020A5
:102E2000CF090020CE090020D4090020D2090020BB
:102E3000D309002080090020D5090020BB0900200B
:102E4000CC09002054090020704700210248026884
:102E500002488218704700000400002000F4FEF7CA
:102E600002000020704730B4002513E050F8042B16
:102E7000D30744BFA9F101039A18091F042942F896
:102E8000045BFAD213468C0744BF15809B1CC9070C
:102E900048BF1D7050F8041B0029E7D130BC7047B3
:102EA000002021490860704738B504000025E088FB
:102EB00080B2000BC0B2401E0FD0401E05D0401E95
:102EC00004280AD9401F04D009E0200003F0C9FCFF
:102ED00006E0200003F0C7FD02E0042000E005202A
:102EE000C0B232BDF8B504000F4D2868002806D0E6
:102EF00000212868FFF72BFE0020286012E08020C8
:102F000001F0D2FF0400002C01D107200BE00E25B8
:102F1000064E27002A003100380003F0B3FB2000E2
:102F200003F0A1FD0020F2BD40090020D4080020DC
:102F300018B587B01221002202AC200003F06EFB0E
:102F4000082100226C46200003F068FB974C052204
:102F50000521206800F019FD05220621206800F0F7
:102F600014FD05220721206800F00FFD01208DF8D7
:102F7000040000208DF8060001208DF807000320D2
:102F80008DF805008A48818800916946006800F044
:102F900093FCA088009002208DF804006946206808
:102FA00000F08AFC834C0021200003F004FF002085
:102FB000ADF808004FF48270ADF80A000020ADF8BB
:102FC0000C000220ADF80E000120ADF810004FF407
:102FD0000070ADF812000020ADF814000020ADF82C
:102FE00016000720ADF8180002A9200003F0C4FE67
:102FF0000121200003F0DFFE08B010BD38B5040049
:103000006C4D0121280003F0E9FE012802D12800BF
:1030100003F0E0FE0221280003F0E0FE0028F9D0D2
:103020002100C9B289B2280003F0D6FE0121280090
:1030300003F0D4FE0028F9D0280003F0CBFEC0B284
:1030400032BD00B585B05C488188019100218DF8C2
:10305000081003218DF8091001218DF80B1001A92A
:10306000006800F029FC01214FF4804000F003FCCF
:103070000221002003F0BCFE0420039000208DF804
:1030800010000C208DF8110001208DF8120003A80B
:1030900000F098F808208DF8000002208DF801005B
:1030A00002208DF8020001208DF80300684603F02D
:1030B000CBFE05B000BD00B585B0404881880191C8
:1030C00000218DF8081003218DF8091001218DF8D9
:1030D0000B1001A9006800F0EFFB01214FF48040C4
:1030E00000F0C9FB0021002003F082FE01200390C4
:1030F00000208DF810000C208DF8110001208DF8B3
:10310000120003A800F05EF806208DF800000220EF
:103110008DF8010002208DF8020001208DF80300D7
:10312000684603F091FE012000F094F805B000BD60
:1031300000B585B022488188019100218DF80810E2
:1031400003218DF8091001218DF80B1001A90068E9
:1031500000F0B2FB01214FF4804000F08CFB012114
:10316000002003F045FE0220039000208DF810009F
:103170000C208DF8110001208DF8120003A800F03A
:1031800021F807208DF8000002208DF801000220B0
:103190008DF8020001208DF80300684603F054FE0C
:1031A000012000F057F805B000BD0000E0830008E2
:1031B000D883000800300140F8830008E883000845
:1031C000F083000870B40023244A14008179002998
:1031D0002DD0224B1D6801688D431D60204B1D685A
:1031E00001688D431D60017963181C6801680C43F8
:1031F0001C601C4C256801688D4325601A4D2E68A3
:1032000001688E432E604179102908D12268016837
:103210000A4322602A6801680A432A600DE0417966
:1032200051180B001A6801680A431A6005E0017919
:1032300063181A6801688A431A6070BC70470100FD
:1032400000220A480068084201D0012000E0002066
:10325000C0B270470549086070470000003C01405B
:10326000043C0140083C01400C3C0140143C01403E
:1032700070B5DFF8B043DFF8B05304222900200016
:1032800003F030FE002874D0A07810F00100DFF8C1
:103290009C1308606088C0F3400080B2DFF8901390
:1032A00008606088C0F3800080B2DFF8881308608F
:1032B0006088C0F3C00080B2DFF87C1308606088CB
:1032C000C0F3001080B2DFF8741308606088C0F3A8
:1032D000401080B2DFF8681308606088C0F3801087
:1032E00080B2DFF8601308606088C0F3C01080B25D
:1032F000DFF8541308606088C0F3002080B2DFF864
:103300004C1308606088C0F3402080B2DFF840139F
:1033100008606088C0F3802080B2DFF8381308604E
:103320006088C0F3C02080B2DFF82C13086060888A
:10333000C0F3003080B2DFF8241308606088C0F367
:10334000403080B2DFF8181308606088C0F3803026
:1033500080B2DFF810130860608880B2C00B80B2C2
:10336000DFF804130860042632002100280003F06F
:1033700089F9DFF8F84220680069A188084201D085
:10338000012000E000200021C0B203F018FEDFF8A9
:10339000E052C0B2698860F300016980A0680069EA
:1033A000A189084201D0012000E000200121C0B223
:1033B00003F005FEC0B2698860F3410169802069AD
:1033C0000069A18A084201D0012000E0002002210A
:1033D000C0B203F0F4FDC0B2698860F38201698075
:1033E000A0690069A18B084201D0012000E0002003
:1033F0000321C0B203F0E3FDC0B2698860F3C301EA
:103400006980206A0069A18C084201D0012000E097
:1034100000200421C0B203F0D2FDC0B2698860F37D
:1034200004116980A06A0069A18D084201D00120C1
:1034300000E000200521C0B203F0C1FDC0B26988E0
:1034400060F345116980206B0069A18E084201D0AC
:10345000012000E000200621C0B203F0B0FDC0B2A0
:10346000698860F386116980A06B0069A18F0842AA
:1034700001D0012000E000200721C0B203F09FFD31
:10348000C0B2698860F3C7116980206C0069B4F824
:103490004410084201D0012000E000200821C0B201
:1034A00003F08DFDC0B2698860F308216980A06CCB
:1034B0000069B4F84C10084201D0012000E000205F
:1034C0000921C0B203F07BFDC0B2698860F34921D5
:1034D0006980206D0069B4F85410084201D00120C1
:1034E00000E000200A21C0B203F069FDC0B2698883
:1034F00060F38A216980A06D0069B4F85C1008420D
:1035000001D0012000E000200B21C0B203F057FDE4
:10351000C0B2698860F3CB216980206E0069B4F87D
:103520006410084201D0012000E000200C21C0B24C
:1035300003F045FDC0B2698860F30C316980A06E6C
:103540000069B4F86C10084201D0012000E00020AE
:103550000D21C0B203F033FDC0B2698860F34D3174
:103560006980206F0069B4F87410084201D001200E
:1035700000E000200E21C0B203F021FDC0B2698836
:1035800060F38E316980A06F0069B4F87C10084246
:1035900001D0012000E000200F21C0B203F00FFD98
:1035A000C0B2698860F3CF31698070BD00201F49C7
:1035B000086000201E49086000201E4908600020A5
:1035C0001D49086000201D49086000201C49086052
:1035D00000201C49086000201B49086000201B498E
:1035E000086000201A49086000201A49086000207D
:1035F000194908600020194908600020184908602E
:103600000020184908600020174908607047010031
:10361000174A52880A80891C70470188014A5180E4
:10362000704770471404002000090020B88241420E
:10363000BC82414280824142848241429C02424299
:10364000A0024242A4024242A8024242AC024242CA
:10365000B0024242B4024242B8024242BC0242427A
:10366000A0824142A4824142A8824142D87C000803
:103670001004002010B400220488224B98420ED07F
:10368000264A90420BD0B0F1804F08D01E4A90429B
:1036900005D01E4A904202D01D4A904204D14FF6F6
:1036A0008F7214404A8814431A4A904207D01A4A2B
:1036B000904204D04FF6FF4214400A89144304801C
:1036C0004A68C2620A880285984202D0134A904230
:1036D00001D18A7A02860122828210BC704741623F
:1036E0007047406A70470A00D2B2002A04D00288AC
:1036F00052F00102028004E003884FF6FE7213408C
:1037000003807047000001400004004000080040B2
:10371000000C004000100040001400400004014074
:103720002DE9F04F01000022002300240225002093
:103730000226DFF86071D7F800C01CF00C0CE646DA
:10374000BEF1000F06D0BEF1040F07D0BEF1080F86
:1037500008D037E0DFF844210A6036E0DFF8402186
:103760000A6032E0DFF830E1DEF80020C2F3805278
:103770001000DEF8002012F03F02160000280BD0E7
:10378000DFF81C21B2FBF6F8DEF80020C2F3881245
:1037900002FB08F844460AE0DFF80021B2FBF6F825
:1037A000DEF80020C2F3881202FB08F84446DEF877
:1037B0000020C2F30142521C52001500B4FBF5F286
:1037C0000A6002E0DFF8D4200A60D7F8008018F021
:1037D000F0085FEA1818DFF8CCA01AF80820D1F832
:1037E00000E03EFA02FEC1F804E0D7F8009019F4B8
:1037F000E0595FEA99291AF809E0D1F804B03BFAD8
:103800000EFBC1F808B03F6817F460477F0B1AF849
:1038100007A0D1F804B03BFA0AFBC1F80CB0BDE830
:10382000F08F0A00D2B2002A04D01F4A1368034363
:10383000136003E01C4A13688343136070470A0057
:10384000D2B2002A04D0194A13680343136003E07C
:10385000164A13688343136070470A00D2B2002AE5
:1038600004D0134A13680343136003E0104A13683B
:103870008343136070470A00D2B2002A04D00D4A75
:1038800013680343136003E00A4A13688343136019
:103890007047000008380240043802400024F40059
:1038A000001BB700240400203038024034380240A6
:1038B0004038024044380240F0B500220023002482
:1038C0000025102D5CD2012616FA05F213000A68B5
:1038D0001A4014009C4251D103270268AC465FFA9B
:1038E0008CFC5FEA4C0C17FA0CFC32EA0C0202600A
:1038F000D0F800C091F804E02A00D2B252001EFABB
:1039000002FE5EEA0C0CC0F800C00A79012A02D05F
:103910000A79022A22D18268AC465FFA8CFC5FEAFF
:103920004C0C17FA0CFC32EA0C028260D0F808C08A
:1039300091F805E02A00D2B252001EFA02FE5EEAB9
:103940000C0CC0F808C04268AE4032EA0606466079
:1039500042688E79AE40B6B232434260C6682A00F1
:10396000D2B25200974036EA0707C760C668CF79DF
:103970002A00D2B2520097403E43C6606D1CA0E7B9
:10398000F0BD0183704741837047F0B500240025E6
:103990001300DBB211F00706F6B2B60013FA06F612
:1039A0000B009BB2DB1000EB83070B009BB2DB101C
:1039B00000EB8303D3F820C05FF00F0E11F0070374
:1039C000DBB29B001EFA03FE3CEA0E0CC7F820C0D7
:1039D0000B009BB2DB1000EB83031B6A33430F0029
:1039E000BFB2FF1000EB87073B62F0BD2DE9F84F37
:1039F00005000E00170098460A9C280080B241F28C
:103A0000F801884201D00B201BE02000C0B2002842
:103A100001D0052015E03000C0B2002801D01120EF
:103A20000FE0092F01D30F200BE000F00CF8B9468E
:103A3000DFF8BCA2C3464A465146584602F022FE71
:103A40000020BDE8F28F1CB5AA480078002824D0D9
:103A5000A74CD4E90001009004224FF4116168469C
:103A6000FEF77CF9D4E9000130F0FF3231F00003B9
:103A70000098002110431943C4E900019E480099B1
:103A80000268914206D2D4E90023121E73F1FF337B
:103A9000C4E900230099016005E008224FF4116198
:103AA0009348FEF75BF900209449086013BD9448E1
:103AB000006870479349488D002804D192480089D6
:103AC0000A8D904203D2012081F8400002E00020DC
:103AD00081F840008D49488D002804D18A4800892A
:103AE0000A8D904203D2012081F8400002E00020BC
:103AF00081F8400070471CB58248202101800021D8
:103B000041800021416044F21F01818180490161AF
:103B1000002242610022828300220262002202858A
:103B200000224285002280F84020784A202313801A
:103B30000023538043685360808990811161002085
:103B4000506100209083002010620020108500202A
:103B50005085002082F8400000206E49087000F077
:103B6000B1F80400200080B2002801D000F080F8F5
:103B700000200090042208216846FEF7EFF8009824
:103B8000000703D500205B49087008E0012059496F
:103B9000087004224FF411615748FEF7DFF84FF424
:103BA0007A605649086013BD0200002A3DD054498E
:103BB0000868002808D10A6000200B6858600020BF
:103BC00009680860002031E010890B681B89984261
:103BD00008D20020106008685060086802600A601F
:103BE000002023E0096800291FD008891389984222
:103BF00001D101201AE010890B8998420AD2086885
:103C0000106051600868002801D0086842600A60AE
:103C100000200BE04868002805D14A6011600020B0
:103C20005060002002E04968DDE70120704770B471
:103C3000334C2168002919D00A8903009BB29A42AB
:103C400012D10B684A68002B00D05A60002A00D0BD
:103C5000136000250D6000254D600D8926683689AA
:103C6000B54200D1226001E04968E3E770BC7047CB
:103C700070B5234D2C680026002C07D02089060043
:103C80006468300080B2FFF7D2FFF5E700202860BB
:103C900070BD70B504000025260030894FF6FF7115
:103CA00088420CD03000FFF77FFF0500280080B26B
:103CB000002802D0280080B203E02836EDE7280073
:103CC00080B270BD38B5002400200D49086012484C
:103CD000FFF7DFFF0500280080B2002802D028008F
:103CE00080B203E00D48FFF7D4FF80B232BD000080
:103CF000E8080020C30900200C090020100900205A
:103D0000140900208C07002064030020D007002045
:103D100020A10700D609002084010020080000200F
:103D20007047000010B50400FFF7C1FE0100002934
:103D300008D00889220092B2904201D1080002E026
:103D40004968F4E7002010BDF0B4040095892D12F5
:103D500015F00F0596892800C0B2072804D1106914
:103D60004088C01DC0101FE00800C0B2002801D16B
:103D7000012019E02800C0B2082804D11069008988
:103D8000C01DC01010E030000F00C0B2FFB2B8423A
:103D900001D2002008E01269C9B20620414302EBBB
:103DA00001004088C01DC010F0BC704730B4302204
:103DB000827003780A00D2B2642492FBF4F2D31822
:103DC00003700A00D2B2642492FBF4F304FB1323C1
:103DD00044781A00D2B20A2592FBF5F21419447005
:103DE0001A00D2B20A248578551992FBF4F204FB2A
:103DF0001254847030BC70472DE9F047050020262E
:103E0000AE40FFF754FE04000027002C2BD0208981
:103E1000B0F5805F25DBA8464046C0B200281BD025
:103E2000B4F80C905FF0000A4046C0B2002813D0EE
:103E30004846C0B2514680B289B288420CD351463E
:103E4000C9B2200000F004F98088304201D000207F
:103E500080461AF1010AE7E74046C0B2002800D1C7
:103E60007F1C6468D1E7380080B2BDE8F0872DE997
:103E7000F84F83460D0016001F005FF0200818FA67
:103E80000BF82888B0F5805F0BD1FFF710FE040017
:103E9000002C09D10A98002806D01B200A99087026
:103EA00002E0DFF86C090468002C35D0002C33D018
:103EB000300080B202282FDB2089B0F5805F29DB3B
:103EC000D946484680B200281CD0A0898DF8000051
:103ED0005FF0000A484680B2002813D09DF8000029
:103EE0005146C9B288420DD35146C9B2200000F0F4
:103EF000AFF8808810EA080F01D0002081461AF13F
:103F0000010AE7E7484680B2002803D120893880BB
:103F1000BF1CB61E6468C9E7002C02D02089288027
:103F200002E04FF6FF702880DFF8E40804603000FC
:103F300080B2BDE8F28F2DE9F74F86B01C00002556
:103F400008984069009008988689361216F00F0686
:103F50009DF81C00002803D03000C0B2072810D103
:103F6000009803F051F80500002C6CD02F00BFB270
:103F700000980190A0463A000199404602F082FB69
:103F800061E03000C0B209283BD101279DF81C80B8
:103F9000009803F039F80099084410F101094046EF
:103FA000390080B289B288422BD399F80000FF28EB
:103FB00027D099F80000FE2823D03800414680B26F
:103FC00089B2884215D1484603F01EF80500002C3E
:103FD0000ED0280080B200280AD0AA461FFA8AFA1A
:103FE000CDF80490A34652460199584602F04AFB88
:103FF00007E07F1C484603F007F8484410F1010928
:10400000CDE7280080B200281DD10C200500002C2F
:1040100019D00D27DFF8FC870DF104093A0041465D
:10402000484602F02FFB9DF81C100DF10D00FFF724
:10403000BDFE5FF00D090DF1040AA3464A46514644
:10404000584602F01FFB280080B209B0BDE8F08F8F
:1040500030B4020093891B1213F00F031800C0B292
:10406000082808D10800C0B2002801D1106909E071
:104070001069801D06E014690D00EDB2062045436D
:1040800004EB050030BC70470A307047F0B4030001
:1040900000248D892D1215F00F051800C0B20028DC
:1040A00000D010342800C0B2072801D1002072E0EF
:1040B00001261800C0B2370080B2BFB2B84268D340
:1040C0002800C0B2082803D10869801D020009E059
:1040D0000F69B4461FFA8CFC062000FB0CFC07EBB2
:1040E0000C0002001088C01E18D0401E2CD0801E6C
:1040F00014D0401E012827D9001F0FD014380DD02E
:10410000401E21D00E3809D0401E1DD040F231276C
:10411000C01B03D0801E012816D92FE00F344FF6A4
:10412000F070044030001F00FFB280B2BFB2B8424E
:1041300009D210880B2803D01088B0F5187F01D160
:1041400050880419103422E01F344FF6E070044008
:1041500030001F00FFB280B2BFB2B8420DD210884B
:1041600040F26227B84204D0108840F26327B84278
:1041700002D15088041900E0203408E030001F000C
:10418000FFB280B2BFB2B84201D250880419761C87
:104190008FE7200080B2F0BC70470200080080B2B8
:1041A000002808D0012808D0022849D0032866D06A
:1041B000222830D081E0002080E0100041F6324318
:1041C00080B298420DD1DFF850060088002808D050
:1041D000DFF8300C007B10F00200012801DB00202A
:1041E0006CE0100041F6334380B2984212D1DFF800
:1041F000180C007B10F0020001280BDBDFF818061A
:104200000088002806D1DFF8040C0088002801D0BF
:10421000002053E051E0100041F6334380B2984251
:104220000DD1DFF8E40B007B10F00200012806DB63
:10423000DFF8E4050088002801D000203EE03CE0E3
:10424000100041F6324380B2984208D1DFF8B40B37
:10425000007B10F00400012801DB00202EE010009C
:1042600041F6334380B2984208D1DFF89C0B007BC3
:1042700010F00400012801DB00201FE01DE0100009
:1042800041F6324380B2984208D1DFF8780B007BC8
:1042900010F00800012801DB00200FE0100041F6BB
:1042A000334380B2984208D1DFF85C0B007B10F0FA
:1042B0000800012801DB002000E0122070472DE9F2
:1042C000F54F85B00C001D00DDF840A02600F6B2C9
:1042D000AF893F1217F00F07287B00F0FF00ADF801
:1042E0000A003800C0B207280AD0BDF81400B0F5A3
:1042F000805F05DBA869007800F0FF00ADF80A00D8
:10430000BDF80A002100C9B289B2884201D2112049
:104310007BE23100C9B22800FFF79AFE03900398B0
:104320008088002817D0DFF8E8BA0398808840001A
:1043300010F00E009BF80010084208D10398007995
:1043400010F0070F01D106205FE21A205DE2E86954
:1043500000280FD001E0052057E29DF844000090AE
:104360005346069A2100C9B2BDF81400D5F81CC006
:10437000E0474AE2BDF81400B0F5805F6ADA200039
:10438000C0B2002866D0D5F818802100C9B2280034
:10439000FFF75EFE8146B9F802B01BF1070B5FEA3A
:1043A000EB0BCDF80C8003982100C9B200EB810023
:1043B00050F8040CC10736D5002240084000002107
:1043C0005A4692B2022392FBF3F20B009BB2934245
:1043D00010DA028892B2120AAAF80020BAF8002075
:1043E000438852EA0322AAF800201AF1020A801C2C
:1043F000491CE5E75A4692B2022392FBF3FC03FB09
:104400001C22012A40F00082BAF8002012F47F42F8
:10441000AAF80020BAF80020008880B252EA1022E0
:10442000AAF80020F0E10188AAF800104188AAF853
:1044300002101AF1040A001D0490584680B2001FB1
:10444000019004980090D046019A0099404602F0ED
:1044500019F9D9E100208DF8010000208DF8000045
:10446000D5F818905FF00008300080B200280AD01C
:10447000BDF81400B0F5805F05DB29003000C0B244
:10448000FFF704FE8046404680B2001109EB400071
:1044900001903100C9B22800FFF7DAFD8146B9F872
:1044A0000400400010F00E009BF80010084200F0DD
:1044B0006E8130002100C9B280B289B288420CD02E
:1044C0009DF84400002800F0988130002100C9B216
:1044D00080B289B28842C0F09081300080B200285A
:1044E0000AD13800C0B2072806D0BDF80A00AAF8E1
:1044F00000001AF1020A80E1B9F80000ADF80200EC
:10450000B9F80000B0F5E06F18DBB9F8020009282F
:1045100005DAB9F802002F30ADF802000EE0B9F864
:104520000200102803D10620ADF8020006E0B9F819
:104530000200202802D10720ADF80200BDF80200D9
:10454000002837D0401E012850D9801E00F08E80F0
:10455000401E00F09880401E48D0401E00F086802B
:10456000401E012840F28F80801E00F0E080401E37
:10457000012840F2B280C01F00F09680001F00F0BA
:104580009380801F00F09080C01E2FD0401E6DD001
:10459000401E78D00D3829D0401E67D0401E72D002
:1045A000401E072822D94FF40C71401A032840F20C
:1045B0009480E6E09DF84400002815D099F80200A8
:1045C00010F00F00012808DBB9F8020010FA88F09B
:1045D00010F00F0F01D11AF1020AB9F80200C0F36E
:1045E00003100AEB400ACEE018200EE10021DFF8AC
:1045F0002408B9F8022030F8122018F00F00824089
:10460000ADF8082001980288404610F00F0F02D143
:104610000020AAF80000BAF80000AAF800009DF8EF
:104620004400002808D0BAF80000BDF80810114076
:104630000843AAF800000BE0BAF80000BDF8081023
:10464000114018F00F0389B2D9400843AAF80000BE
:10465000BAF80000AAF80000B9F8020010FA88F0D1
:1046600010F00F0F01D11AF1020A8CE0404610F051
:104670000F0F01D00520C8E001980088AAF80000BB
:104680001AF1020A7FE0404610F00F0F01D005201A
:10469000BBE001980088AAF8000001984088AAF8B9
:1046A00002001AF1040A6EE0404610F00F0F01D02C
:1046B0000520AAE001980088AAF800000198408827
:1046C000AAF8020001988088AAF804000198C0881E
:1046D000AAF806001AF1080A55E0404610F00F0F3C
:1046E00001D0052091E0B9F802B01BF1070B5FEA99
:1046F000EB0B01980490CDF80CA05A46049903984E
:1047000001F0C0FF0398B9F8020030F00F000F303D
:1047100000110AEB400A99F8020010F00F0F05D0C3
:104720009AF8000000F0FF00AAF800002BE04046D5
:1047300010F00F0F01D0052067E0B9F802B01BF1AF
:10474000070B5FEAEB0B01980490CDF80CA05A46DA
:104750000499039801F096FF0398B9F8020030F02D
:104760000F000F3000110AEB400A99F8020010F018
:104770000F0F05D09AF8000000F0FF00AAF8000023
:1047800001E0182041E001208DF8010035E0002013
:10479000414611F00F0F02D10021AAF8001099F83C
:1047A000021011F00F0101290BDBB9F8021011FA08
:1047B00088F111F00F0F04D11AF1020A0021AAF8B2
:1047C000001000210800C0B2B9F80220C2F30312A1
:1047D000904206DA1AF1020A0020AAF80000491CE9
:1047E000F0E799F8040010F0070F03D106208DF8C8
:1047F000000002E01A208DF800009DF8010000285A
:1048000002D19DF8000000E0002007B0BDE8F08F65
:104810006C090020700300209E0900202DE9F74F4D
:1048200086B004001D00DDF848909DF81C00ADF82E
:104830000400A889001210F00F008DF80700002076
:10484000ADF80800287B00F0FF00ADF80C00002058
:104850008DF806009DF80700072832D0A869008867
:10486000C0B2ADF80800BDF80800002829D120002A
:1048700080B241F61041884205DB200080B241F64B
:104880003041884219DB200080B2B0F5B05F04DB14
:10489000200080B2B0F5C05F0FDB200080B2B0F521
:1048A000D05F04DB200080B2B0F5E05F05DB2000C4
:1048B0004FF2300180B2884203D1BDF80C00ADF850
:1048C0000800BDF808009DF81C1089B2884201D28A
:1048D000112094E29DF81C102800FFF7B9FB04900A
:1048E000DFF82CA504988088801010F00E009AF84C
:1048F000001008420ED10498007910F0380F07D14B
:1049000004988088002801D1052078E2072076E20B
:104910001A2074E29DF81C00002830D0200080B2DC
:1049200041F61041884205DB200080B241F630415B
:10493000884219DB200080B2B0F5B05F04DB2000B4
:1049400080B2B0F5C05F0FDB200080B2B0F5D05F61
:1049500004DB200080B2B0F5E05F05DB20004FF201
:10496000300180B288420AD1A869017801F0FF01C4
:10497000080080B2002802D001208DF80600286AC5
:1049800000280BD09DF84C0000904B46089A9DF8EB
:104990001C10200080B22E6AB04730E200208DF853
:1049A00000005FF0070B0898002801D1002026E2E4
:1049B000D5F818800020ADF80200BDF80410C9B287
:1049C0002800FFF745FB06002900BDF80400C0B22F
:1049D000FFF75CFB0700B088801010F00E009AF81B
:1049E0000010084200F0E981BDF80400002804D05E
:1049F000380080B2001108EB4008BDF804009DF8B3
:104A00001C1089B288420CD09DF84C00002800F0A0
:104A1000EE81BDF804009DF81C1089B28842C0F0F8
:104A2000E681BDF80400002815D19DF8070007288D
:104A300011D0B9F80010BDF80C000A00D2B292B241
:104A4000904201D21320DAE1B9F80000A8F8000082
:104A500019F10209ADE13088ADF802003088B0F5F7
:104A6000E06F14DB7088092804DA70882F30ADF805
:104A700002000CE07088102803D10620ADF8020077
:104A800005E07088202802D10720ADF80200BDF8AB
:104A90000200002838D0401E01284ED9801E00F0A8
:104AA0008580401E00F00B81401E46D0401E7DD008
:104AB000401E012840F20381801E00F03C81401E10
:104AC000012840F25681C01F00F01C81001F00F039
:104AD0001981801F00F01681C01E2ED0401E65D0A7
:104AE000401E00F0EC800D3827D0401E5ED0401EE6
:104AF00000F0E580401E07281FD94FF40C71401AC2
:104B0000032840F2368152E19DF84C00002812D073
:104B1000B07810F00F00012807DB708810FA87F0DA
:104B200010F00F0F01D119F102097088C0F30310C2
:104B300009EB40093DE1182061E10023B54A708886
:104B400032F8101017F00F008140ADF80A10B8F8D5
:104B50000010BDF80A0081439DF84C00002806D0E3
:104B6000B9F80020BDF80A000240114313E0B9F87B
:104B70000000738832F81330DB43184201D0122052
:104B80003DE1B9F80030708832F81000034017F0AA
:104B90000F0083401943A8F80010708810FA87F0BE
:104BA00010F00F0F01D119F1020902E1380010F0E5
:104BB0000F0F01D0052022E1B9F800A09DF80600F2
:104BC000002807D0B8F80000514689B2884201D0C9
:104BD0001C2014E1200080B241F6104188421FDB06
:104BE000200080B241F63041884219DA504680B246
:104BF000B0F5B05F04DB504680B2B0F5C05F0FDBAC
:104C0000504680B2B0F5D05F04DB504680B2B0F5BC
:104C1000E05F05DB504680B2002801D01220EEE0B4
:104C2000200080B241F63241884205D0200041F692
:104C3000334180B288423DD1BDF80400012816D12D
:104C4000B8F80000514689B288420DD0514689B269
:104C5000200080B2FFF7A1FA83465846C0B2002870
:104C600002D05846C0B2CAE001206B490870BDF8B6
:104C7000040008281ED1634800214161674A02618F
:104C800000214160604900234B610A6100224A60B3
:104C9000524692B292070DD500224285002202852B
:104CA000002280F840200020488500200885002050
:104CB00081F84000A8F800A019F1020979E0380055
:104CC00010F00F0F01D0052099E09DF80600002894
:104CD0000DD0B8F80000B9F80010884205D1B8F836
:104CE0000200B9F80210884201D01C2087E0B9F810
:104CF0000000A8F80000B9F80200A8F8020019F1B5
:104D0000040956E0380010F00F0F01D0052076E0BE
:104D1000B9F80000A8F80000B9F80200A8F80200ED
:104D2000B9F80400A8F80400B9F80600A8F80600CD
:104D300019F108093DE0380010F00F0F01D00520EF
:104D40005DE0B6F802A01AF1070A5FEAEA0ACDF8B8
:104D50001490CDF8108052460599049801F092FC09
:104D60000498708830F00F000F30001109EB4009F3
:104D70001FE0380010F00F0F01D005203FE0B6F81B
:104D800002A01AF1070A5FEAEA0ACDF81490CDF8FA
:104D9000108052460599049801F074FC04987088BC
:104DA00030F00F000F30001109EB400901E018202E
:104DB00025E001208DF8000019E0BDF8040000286E
:104DC00002D119F1020910E0B07810F00F000128AB
:104DD00007DB708810FA87F010F00F0F01D119F17E
:104DE00002097088001109EB4009182083469DF8DC
:104DF0000000002802D15846C0B200E0002009B0EF
:104E0000BDE8F08F8C070020D00700209C0900200F
:104E1000CC09002070820008D609002020A10700DC
:104E200000F5E0700268914203D343681A4491424E
:104E300002D380680028F5D170471849086880B906
:104E40004FF4805048604FF480324FF0FF30C8601C
:104E500008610420124B8A604861C3F8BC01114804
:104E600008600120704701F1080313F0070F0EBF1F
:104E70000023C3F1080303F007031944D21A816128
:104E8000C26042F001034B60091D4FF0280C41F84D
:104E900002C0024A1369C36170470000AC080020D9
:104EA000340400206859883C2DE9F84F84B0064648
:104EB000AFF30080F52E1E4D80F00F820B2E31BF18
:104EC00010260B36F608F6002868F408E04010F0CB
:104ED000030F4AD0C04300F00100041905F1280077
:104EE00000EBC408E700D8F808607068C008C0008C
:104EF000B84218BF02F0A3F8D6F80890464508BF9C
:104F000002F09DF84E4508BF02F099F87068C0089D
:104F1000C000B84218BF02F092F8C8450AD128680C
:104F2000012101FA04F420EA04042C6010E000BF1F
:104F3000340400202869814508D3D9F80C10B14207
:104F400004D1C8F80890C9F80C8001E002F077F8A5
:104F500047F00300311D7060301DCA5942F0010254
:104F6000C25106F1080800F010BFA968B14280F0F4
:104F70009F83002800F0A2804FF0010808FA04F196
:104F8000490000FA04F4484201430C4060420440E6
:104F9000641E200B00F01000C440610901F00801FC
:104FA000CC40A20802F00402D440630803F00203DC
:104FB0000818DC401018C4F3400718183818FC40D3
:104FC000241805F1280000EBC40AE700DAF808907D
:104FD000D9F80400C008C000B84218BF02F02FF88A
:104FE000D9F808B0D14508BF02F029F8D94508BF63
:104FF00002F025F8D9F80400C008C000B84218BF74
:1050000002F01DF8DA4506D1286808FA04F420EA0F
:1050100004042C600DE029698B4508D3DBF80C00F3
:10502000484504D1CAF808B0CBF80CA001E002F062
:1050300006F8BF1B46F0030009F10402C9F804009A
:1050400047F00101915109EB06020192D751AC687A
:105050004FEAD40ABAF11F0F88BF01F0F0FF34B352
:10506000CDF800A005F128006E6900EBCA0AD3460E
:10507000102C38BF01F0E3FF2968009821FA00F2F4
:10508000D30704D408FA00F00843286007E0DAF8F0
:105090000800296988422CBF834601F0D0FFCAF876
:1050A0000860CBF80C60C6F808B0C6F80CA0AF607A
:1050B00009F108080198686100F067BE6868002877
:1050C00000F0178341420840401E010B01F010011F
:1050D000C840420902F00802D040830803F00403EC
:1050E000D840440804F002045118E0405918C0F3B5
:1050F0004007611805F598787918F840401858F875
:1051000020104868C008C0008A46A0EB060B08E0E3
:1051100001464868C008C000801B58453CBF834614
:105120008A4608690028F3D149690029F1D1286924
:105130008245C0F0CF80DAF80410C90806EB0B09ED
:10514000C900494518BF01F07AFF0AEB0600824505
:10515000019080F0BF80DAF80C40DAF818705445FE
:105160000DD0DAF808002969884223D3C268524575
:1051700004BFA16851451DD1C460A0601CE00AF1C4
:1051800014010C6834B90AF110010C68A4B101E0F3
:1051900011460C6804F114021068002802BF04F1E3
:1051A000100210680028F3D12869814202D300223E
:1051B0000A6001E001F043FF002F34D0DAF81C0050
:1051C00008EB800001688A4509D1046094B9DAF8D7
:1051D0001C006968012282409143696023E02869CC
:1051E000874205D33969514514BF7C613C6101E0B8
:1051F00001F025FFBCB129698C4212D3A761DAF80E
:10520000100028B1884226BF2061846101F017FF99
:10521000DAF8140038B12969884202D360618461E8
:1052200001E001F00CFFBBF1100F0ED249F00300BA
:105230000AF10401CAF804000AF1040051F8092037
:1052400042F0010240F809203EE046F003010AF175
:105250000402CAF804104BF001009051019941F882
:105260000BB0A8680090C4081F2C88BF01F0E7FEAF
:10527000009828B305F1280000996F6900EBC40875
:10528000C146102938BF01F0DAFE286820FA04F17F
:10529000CA0705D4012101FA04F404432C6007E095
:1052A000D8F80800296988422CBF814601F0C7FE62
:1052B000C8F80870C9F80C70C7F80890C7F80C80D7
:1052C000C5F808B0019868611AF1080800F0F0818B
:1052D00000F05BBD01F0B3FEEAE116F1400F28BF1C
:1052E0004FF0FF3680F0E4810B36F6086B68F6006D
:1052F000002B00F0DD810027300AC6F1000908BF4D
:10530000002423D0B0F5803F28BF1F241ED2A0F573
:105310008071090C01F008018840A0F58052120C40
:1053200002F004029040A0F58044240CC1F10E016B
:1053300004F00204891A091BA04001EBD031C81DFA
:1053400026FA00F404F0010404EB410405F5987812
:1053500058F8240030B31F2C0FBFB4464FEA540C4A
:10536000CCF1190C06FA0CFCBE46494601E04FEAA6
:105370004C0C4268D208D200921B8A4202D2110021
:1053800007460CD0426910304FEADC7950F829000A
:10539000002A1CBF824296460028E8D17046894602
:1053A000A8BBB7BB012101FA04F4640060420443C6
:1053B000234000F07D81584203405B1E180B00F033
:1053C0001000C340590901F00801CB409A0802F0CF
:1053D0000402D3405C0804F002040818E3401018EB
:1053E000C3F3400C2018604423FA0CF31B1858F840
:1053F00023000CE008464168C908C900891B4945DB
:105400003CBF8946074601690029F3D1406900285D
:10541000F1D1002F00F04C81A868801B814580F0FD
:10542000478129698F42FFF455AF7868C008C000F2
:1054300006EB0901884218BF01F001FE07EB060BDD
:105440005F45BFF447AFFC68D7F818A0BC420CD04A
:10545000B8682969884223D3C268BA4204BFA168E8
:10546000B9421DD1C460A0601CE007F114010C68B2
:1054700034B907F110010C68A4B101E011460C68C1
:1054800004F114021068002802BF04F11002106831
:105490000028F3D12869814202D300220A6001E08A
:1054A00001F0CDFDBAF1000F34D0F86908EB8000AF
:1054B00001688F4208D10460A4B9F86969680122C3
:1054C00082409143696025E02869824508D3DAF873
:1054D0001010B94214BFCAF81440CAF8104001E0D5
:1054E00001F0ADFDB4B129698C4211D3C4F818A004
:1054F000386928B1884226BF2061846101F09FFD90
:10550000786938B12969884202D36061846101E019
:1055100001F095FDB9F1100F0CD2B14449F0030030
:10552000391D7860381D51F8092042F0010240F819
:105530000920B9E046F003013A1D796049F0010005
:1055400090514FEAD9004BF809901F2822D805F155
:10555000280101EBC004296821FA00F2D307A04614
:1055600005D4012202FA00F00843286006E0A06892
:10557000296988422CBF804601F061FDC4F808B05B
:1055800007F10800C8F80CB040F8068007F10C01DC
:105590008C5189E05FEA192008BF002123D0B0F5C3
:1055A000803F28BF1F211ED2A0F58072120C02F08E
:1055B00008029040A0F58051090C01F004018840D8
:1055C000A0F580431B0CC2F10E0203F00203521A35
:1055D000D21A984002EBD032D01D29FA00F101F026
:1055E000010101EB420107F11403CBF81C1000226A
:1055F0009A5107F1100308EB81009A516A6822FA68
:1056000001F3DC0711D4012303FA01F111436960AE
:10561000C0F800B0CBF8180007F1080107F10C0042
:1056200040F806B041F806B03EE002681F291DBFF1
:105630004908C1F1190109FA01F1494600E00246A1
:105640005068C008C000484518D002F11003C80FC8
:1056500003EB8003490018680028F0D128698342D1
:1056600020D3C3F800B007F10C01CBF8182041F8A3
:1056700006B007F1080040F806B015E02969906807
:105680008A4228BF88420DD3C0F80CB007F1080148
:10569000C2F808B0885107F10C0082510022CBF803
:1056A000182001E001F0CBFC17F1080840F06D83F1
:1056B000A868B0421DD3811B6A6910290AD39019CA
:1056C0006861A96041F001034360415046F0030660
:1056D00056600BE00021A9606961131D40F00301D1
:1056E0005160111D1C5844F001040C5002F10808CF
:1056F0004BE3E8688642C0F03883DFF8B89BD9F8FE
:10570000000008B9FFF799FBD9F8081088192F3065
:10571000491E20EA01018E4280F0358305F5D877D5
:10572000B86838B13A6889188A4280F02C83884278
:10573000C0F0298301F086FC00281CBFD0F800804F
:1057400010F1010F00F01F8339687A684144396015
:105750008A4238BF7960AC6904BB296909B18842C3
:1057600000D2286100213861C7F81480F9614FF038
:10577000FF31D9F800206A62296205F12802002170
:10578000D260926002F1080454611461891C1032E5
:105790001F29F5D9A8F1280201461DE005F5E071A1
:1057A0000A46814600E09268D2B11068536803440B
:1057B0009945F8D1107B030712D413689C420FD38C
:1057C000D2F804C063449C420AD2C444C2F804C064
:1057D0002146E86808EB00022846FFF744FBC1E2D7
:1057E0002869814538BFC5F8109009EB080000E032
:1057F0008968002900F0BD810A688242F8D1087BDF
:10580000020700F1B6810868C1F800904A68424476
:105810004A6009F1080111F0070F08BFCDF80490A4
:1058200006D0C1F1080101F0070109EB0102019264
:1058300000F1080111F0070F04D0C1F1080101F0D7
:105840000701084480460198A8EB00018419A1EBE8
:10585000060B274646F003064660474528BF01F081
:10586000EEFB98F80400C10758BF01F0E8FBBBF15C
:10587000100F38BF01F0E3FBA869804508D1E96843
:105880008B44C5F80CB0AF614BF0010078606CE15F
:10589000686980450AD1A9688B44C5F808B06F6172
:1058A0004BF00100786047F80BB05EE1D8F80400D7
:1058B00000F00301012940F0B880C008C000C10811
:1058C0001F29039040D8D8F808200092D8F80C601F
:1058D0000291B04508BF01F0B2FB0098804508BFB7
:1058E00001F0ADFBD8F804000299C008C000B0EB8D
:1058F000C10F18BF01F0A3FB0299009A05F128001F
:1059000000EBC100824208D011462A699142C0F0E2
:105910008780CA68424540F0838000998E4206D154
:1059200002982A68012383409A432A607AE08642DB
:1059300005D029698E4273D3B068404570D1009874
:10594000C6600099B1606DE0D8F818000090D8F8F2
:105950000C6046450DD0D8F808002969884223D349
:10596000C268424504BFB16841451DD1C660B06000
:105970001CE008F114010E6836B908F110010E6838
:10598000A6B101E011460E6806F114021068002865
:1059900002BF06F1100210680028F3D12869814285
:1059A00002D300220A6001E001F049FB00980028C0
:1059B00038D0D8F81C0005F5987101EB800001681B
:1059C000884509D106609EB9D8F81C006968012293
:1059D00082409143696025E000982969884205D397
:1059E0000169414514BF4661066101E001F027FBF2
:1059F000C6B129698E4213D30098B061D8F810005F
:105A000028B1884226BF3061866101F018FBD8F8C2
:105A1000140038B12969884202D37061866101E0BF
:105A200001F00DFB039988448B44D8F80410490811
:105A30004900C8F804104BF0010078604FEADB061B
:105A400047F80BB01F2E22D805F1280000EBC60442
:105A5000A146BBF1100F38BF01F0F1FA286820FA17
:105A600006F1CA0705D4012101FA06F606432E60A5
:105A700006E0A068296988422CBF814601F0DFFA60
:105A8000A760C9F80C70C7F80890FC606DE05FEA89
:105A90001B2008BF002123D0B0F5803F28BF1F2165
:105AA0001ED2A0F58072120C02F008029040A0F500
:105AB0008051090C01F004018840A0F580431B0CC3
:105AC000C2F10E0203F00203521AD21A984002EBFE
:105AD000D032D01D2BFA00F101F0010101EB42019F
